{
  "contractName": "KojiToken",
  "abi": [
    {
      "inputs": [
        {
          "internalType": "address",
          "name": "_charityAddress",
          "type": "address"
        }
      ],
      "stateMutability": "nonpayable",
      "type": "constructor"
    },
    {
      "anonymous": false,
      "inputs": [
        {
          "indexed": true,
          "internalType": "address",
          "name": "owner",
          "type": "address"
        },
        {
          "indexed": true,
          "internalType": "address",
          "name": "spender",
          "type": "address"
        },
        {
          "indexed": false,
          "internalType": "uint256",
          "name": "value",
          "type": "uint256"
        }
      ],
      "name": "Approval",
      "type": "event"
    },
    {
      "anonymous": false,
      "inputs": [
        {
          "indexed": true,
          "internalType": "address",
          "name": "previousOwner",
          "type": "address"
        },
        {
          "indexed": true,
          "internalType": "address",
          "name": "newOwner",
          "type": "address"
        }
      ],
      "name": "OwnershipTransferred",
      "type": "event"
    },
    {
      "anonymous": false,
      "inputs": [
        {
          "indexed": true,
          "internalType": "address",
          "name": "from",
          "type": "address"
        },
        {
          "indexed": true,
          "internalType": "address",
          "name": "to",
          "type": "address"
        },
        {
          "indexed": false,
          "internalType": "uint256",
          "name": "value",
          "type": "uint256"
        }
      ],
      "name": "Transfer",
      "type": "event"
    },
    {
      "inputs": [],
      "name": "adminAddress",
      "outputs": [
        {
          "internalType": "address",
          "name": "",
          "type": "address"
        }
      ],
      "stateMutability": "view",
      "type": "function",
      "constant": true
    },
    {
      "inputs": [],
      "name": "adminTaxAlloc",
      "outputs": [
        {
          "internalType": "uint256",
          "name": "",
          "type": "uint256"
        }
      ],
      "stateMutability": "view",
      "type": "function",
      "constant": true
    },
    {
      "inputs": [],
      "name": "burnAddress",
      "outputs": [
        {
          "internalType": "address",
          "name": "",
          "type": "address"
        }
      ],
      "stateMutability": "view",
      "type": "function",
      "constant": true
    },
    {
      "inputs": [],
      "name": "burnTaxAlloc",
      "outputs": [
        {
          "internalType": "uint256",
          "name": "",
          "type": "uint256"
        }
      ],
      "stateMutability": "view",
      "type": "function",
      "constant": true
    },
    {
      "inputs": [],
      "name": "charityAddress",
      "outputs": [
        {
          "internalType": "address",
          "name": "",
          "type": "address"
        }
      ],
      "stateMutability": "view",
      "type": "function",
      "constant": true
    },
    {
      "inputs": [],
      "name": "charityTaxAlloc",
      "outputs": [
        {
          "internalType": "uint256",
          "name": "",
          "type": "uint256"
        }
      ],
      "stateMutability": "view",
      "type": "function",
      "constant": true
    },
    {
      "inputs": [],
      "name": "holderTaxAlloc",
      "outputs": [
        {
          "internalType": "uint256",
          "name": "",
          "type": "uint256"
        }
      ],
      "stateMutability": "view",
      "type": "function",
      "constant": true
    },
    {
      "inputs": [],
      "name": "owner",
      "outputs": [
        {
          "internalType": "address",
          "name": "",
          "type": "address"
        }
      ],
      "stateMutability": "view",
      "type": "function",
      "constant": true
    },
    {
      "inputs": [],
      "name": "renounceOwnership",
      "outputs": [],
      "stateMutability": "nonpayable",
      "type": "function"
    },
    {
      "inputs": [],
      "name": "taxPercentage",
      "outputs": [
        {
          "internalType": "uint256",
          "name": "",
          "type": "uint256"
        }
      ],
      "stateMutability": "view",
      "type": "function",
      "constant": true
    },
    {
      "inputs": [],
      "name": "totalTaxAlloc",
      "outputs": [
        {
          "internalType": "uint256",
          "name": "",
          "type": "uint256"
        }
      ],
      "stateMutability": "view",
      "type": "function",
      "constant": true
    },
    {
      "inputs": [
        {
          "internalType": "address",
          "name": "newOwner",
          "type": "address"
        }
      ],
      "name": "transferOwnership",
      "outputs": [],
      "stateMutability": "nonpayable",
      "type": "function"
    },
    {
      "inputs": [],
      "name": "name",
      "outputs": [
        {
          "internalType": "string",
          "name": "",
          "type": "string"
        }
      ],
      "stateMutability": "pure",
      "type": "function",
      "constant": true
    },
    {
      "inputs": [],
      "name": "symbol",
      "outputs": [
        {
          "internalType": "string",
          "name": "",
          "type": "string"
        }
      ],
      "stateMutability": "pure",
      "type": "function",
      "constant": true
    },
    {
      "inputs": [],
      "name": "decimals",
      "outputs": [
        {
          "internalType": "uint8",
          "name": "",
          "type": "uint8"
        }
      ],
      "stateMutability": "pure",
      "type": "function",
      "constant": true
    },
    {
      "inputs": [],
      "name": "totalSupply",
      "outputs": [
        {
          "internalType": "uint256",
          "name": "",
          "type": "uint256"
        }
      ],
      "stateMutability": "pure",
      "type": "function",
      "constant": true
    },
    {
      "inputs": [
        {
          "internalType": "address",
          "name": "_account",
          "type": "address"
        }
      ],
      "name": "balanceOf",
      "outputs": [
        {
          "internalType": "uint256",
          "name": "",
          "type": "uint256"
        }
      ],
      "stateMutability": "view",
      "type": "function",
      "constant": true
    },
    {
      "inputs": [
        {
          "internalType": "address",
          "name": "_recipient",
          "type": "address"
        },
        {
          "internalType": "uint256",
          "name": "_amount",
          "type": "uint256"
        }
      ],
      "name": "transfer",
      "outputs": [
        {
          "internalType": "bool",
          "name": "",
          "type": "bool"
        }
      ],
      "stateMutability": "nonpayable",
      "type": "function"
    },
    {
      "inputs": [
        {
          "internalType": "address",
          "name": "_owner",
          "type": "address"
        },
        {
          "internalType": "address",
          "name": "_spender",
          "type": "address"
        }
      ],
      "name": "allowance",
      "outputs": [
        {
          "internalType": "uint256",
          "name": "",
          "type": "uint256"
        }
      ],
      "stateMutability": "view",
      "type": "function",
      "constant": true
    },
    {
      "inputs": [
        {
          "internalType": "address",
          "name": "_spender",
          "type": "address"
        },
        {
          "internalType": "uint256",
          "name": "_amount",
          "type": "uint256"
        }
      ],
      "name": "approve",
      "outputs": [
        {
          "internalType": "bool",
          "name": "",
          "type": "bool"
        }
      ],
      "stateMutability": "nonpayable",
      "type": "function"
    },
    {
      "inputs": [
        {
          "internalType": "address",
          "name": "_sender",
          "type": "address"
        },
        {
          "internalType": "address",
          "name": "_recipient",
          "type": "address"
        },
        {
          "internalType": "uint256",
          "name": "_amount",
          "type": "uint256"
        }
      ],
      "name": "transferFrom",
      "outputs": [
        {
          "internalType": "bool",
          "name": "",
          "type": "bool"
        }
      ],
      "stateMutability": "nonpayable",
      "type": "function"
    },
    {
      "inputs": [
        {
          "internalType": "address",
          "name": "_spender",
          "type": "address"
        },
        {
          "internalType": "uint256",
          "name": "_addedValue",
          "type": "uint256"
        }
      ],
      "name": "increaseAllowance",
      "outputs": [
        {
          "internalType": "bool",
          "name": "",
          "type": "bool"
        }
      ],
      "stateMutability": "nonpayable",
      "type": "function"
    },
    {
      "inputs": [
        {
          "internalType": "address",
          "name": "_spender",
          "type": "address"
        },
        {
          "internalType": "uint256",
          "name": "_subtractedValue",
          "type": "uint256"
        }
      ],
      "name": "decreaseAllowance",
      "outputs": [
        {
          "internalType": "bool",
          "name": "",
          "type": "bool"
        }
      ],
      "stateMutability": "nonpayable",
      "type": "function"
    },
    {
      "inputs": [
        {
          "internalType": "address",
          "name": "_account",
          "type": "address"
        }
      ],
      "name": "isExcludedFromRewards",
      "outputs": [
        {
          "internalType": "bool",
          "name": "",
          "type": "bool"
        }
      ],
      "stateMutability": "view",
      "type": "function",
      "constant": true
    },
    {
      "inputs": [
        {
          "internalType": "address",
          "name": "_account",
          "type": "address"
        }
      ],
      "name": "isExcludedFromFees",
      "outputs": [
        {
          "internalType": "bool",
          "name": "",
          "type": "bool"
        }
      ],
      "stateMutability": "view",
      "type": "function",
      "constant": true
    },
    {
      "inputs": [],
      "name": "totalFees",
      "outputs": [
        {
          "internalType": "uint256",
          "name": "",
          "type": "uint256"
        }
      ],
      "stateMutability": "view",
      "type": "function",
      "constant": true
    },
    {
      "inputs": [],
      "name": "totalHolderFees",
      "outputs": [
        {
          "internalType": "uint256",
          "name": "",
          "type": "uint256"
        }
      ],
      "stateMutability": "view",
      "type": "function",
      "constant": true
    },
    {
      "inputs": [],
      "name": "totalCharityFees",
      "outputs": [
        {
          "internalType": "uint256",
          "name": "",
          "type": "uint256"
        }
      ],
      "stateMutability": "view",
      "type": "function",
      "constant": true
    },
    {
      "inputs": [],
      "name": "totalBurnFees",
      "outputs": [
        {
          "internalType": "uint256",
          "name": "",
          "type": "uint256"
        }
      ],
      "stateMutability": "view",
      "type": "function",
      "constant": true
    },
    {
      "inputs": [],
      "name": "totalAdminFees",
      "outputs": [
        {
          "internalType": "uint256",
          "name": "",
          "type": "uint256"
        }
      ],
      "stateMutability": "view",
      "type": "function",
      "constant": true
    },
    {
      "inputs": [
        {
          "internalType": "uint256",
          "name": "_actualAmount",
          "type": "uint256"
        }
      ],
      "name": "distribute",
      "outputs": [],
      "stateMutability": "nonpayable",
      "type": "function"
    },
    {
      "inputs": [
        {
          "internalType": "address",
          "name": "_account",
          "type": "address"
        }
      ],
      "name": "excludeFromFees",
      "outputs": [],
      "stateMutability": "nonpayable",
      "type": "function"
    },
    {
      "inputs": [
        {
          "internalType": "address",
          "name": "_account",
          "type": "address"
        }
      ],
      "name": "includeInFees",
      "outputs": [],
      "stateMutability": "nonpayable",
      "type": "function"
    },
    {
      "inputs": [
        {
          "internalType": "address",
          "name": "_account",
          "type": "address"
        }
      ],
      "name": "excludeFromRewards",
      "outputs": [],
      "stateMutability": "nonpayable",
      "type": "function"
    },
    {
      "inputs": [
        {
          "internalType": "address",
          "name": "_account",
          "type": "address"
        }
      ],
      "name": "includeInRewards",
      "outputs": [],
      "stateMutability": "nonpayable",
      "type": "function"
    },
    {
      "inputs": [
        {
          "internalType": "uint256",
          "name": "_actualAmount",
          "type": "uint256"
        },
        {
          "internalType": "bool",
          "name": "_deductTransferFee",
          "type": "bool"
        }
      ],
      "name": "rewardsFromToken",
      "outputs": [
        {
          "internalType": "uint256",
          "name": "",
          "type": "uint256"
        }
      ],
      "stateMutability": "view",
      "type": "function",
      "constant": true
    },
    {
      "inputs": [
        {
          "internalType": "uint256",
          "name": "_rewardAmount",
          "type": "uint256"
        }
      ],
      "name": "tokenWithRewards",
      "outputs": [
        {
          "internalType": "uint256",
          "name": "",
          "type": "uint256"
        }
      ],
      "stateMutability": "view",
      "type": "function",
      "constant": true
    },
    {
      "inputs": [
        {
          "internalType": "uint256",
          "name": "_taxPercentage",
          "type": "uint256"
        }
      ],
      "name": "setTaxPercentage",
      "outputs": [],
      "stateMutability": "nonpayable",
      "type": "function"
    },
    {
      "inputs": [
        {
          "internalType": "uint256",
          "name": "_holderTaxAlloc",
          "type": "uint256"
        },
        {
          "internalType": "uint256",
          "name": "_charityTaxAlloc",
          "type": "uint256"
        },
        {
          "internalType": "uint256",
          "name": "_burnTaxAlloc",
          "type": "uint256"
        },
        {
          "internalType": "uint256",
          "name": "_adminTaxAlloc",
          "type": "uint256"
        }
      ],
      "name": "setTaxAllocations",
      "outputs": [],
      "stateMutability": "nonpayable",
      "type": "function"
    },
    {
      "inputs": [
        {
          "internalType": "address",
          "name": "_charityAddress",
          "type": "address"
        }
      ],
      "name": "setCharityAddress",
      "outputs": [],
      "stateMutability": "nonpayable",
      "type": "function"
    },
    {
      "inputs": [
        {
          "internalType": "address",
          "name": "_burnAddress",
          "type": "address"
        }
      ],
      "name": "setBurnAddress",
      "outputs": [],
      "stateMutability": "nonpayable",
      "type": "function"
    },
    {
      "inputs": [
        {
          "internalType": "address",
          "name": "_adminAddress",
          "type": "address"
        }
      ],
      "name": "setAdminAddress",
      "outputs": [],
      "stateMutability": "nonpayable",
      "type": "function"
    }
  ],
  "bytecode": "0x60806040526c7e37be2022c0914b2680000000600019816200001d57fe5b06600019036007556003600c55600a600d55600a600e556005600f556005601055620000926010546200007e600f546200006a600d54600e546200034360201b62002ab11790919060201c565b6200034360201b62002ab11790919060201c565b6200034360201b62002ab11790919060201c565b601155348015620000a257600080fd5b5060405162005e3338038062005e3383398181016040526020811015620000c857600080fd5b81019080805190602001909291905050506000620000eb620003cc60201b60201c565b9050806000806101000a81548173ffffffffffffffffffffffffffffffffffffffff021916908373ffffffffffffffffffffffffffffffffffffffff1602179055508073ffffffffffffffffffffffffffffffffffffffff16600073ffffffffffffffffffffffffffffffffffffffff167f8be0079c531659141344cd1fd0a4f28419497f9722a3daafe3b4186f6b6457e060405160405180910390a350600754600160008373ffffffffffffffffffffffffffffffffffffffff1673ffffffffffffffffffffffffffffffffffffffff168152602001908152602001600020819055508073ffffffffffffffffffffffffffffffffffffffff16600073ffffffffffffffffffffffffffffffffffffffff167fddf252ad1be2c89b69c2b068fc378daa952ba7f163c4a11628f55a4df523b3ef6c7e37be2022c0914b26800000006040518082815260200191505060405180910390a380601260006101000a81548173ffffffffffffffffffffffffffffffffffffffff021916908373ffffffffffffffffffffffffffffffffffffffff160217905550620002a362000297620003cc60201b60201c565b620003d460201b60201c565b620002b481620006e560201b60201c565b620002c4620003cc60201b60201c565b73ffffffffffffffffffffffffffffffffffffffff168173ffffffffffffffffffffffffffffffffffffffff161462000329576200030881620003d460201b60201c565b620003286200031c620003cc60201b60201c565b620006e560201b60201c565b5b6200033c61dead620006e560201b60201c565b5062000e95565b600080828401905083811015620003c2576040517f08c379a000000000000000000000000000000000000000000000000000000000815260040180806020018281038252601b8152602001807f536166654d6174683a206164646974696f6e206f766572666c6f77000000000081525060200191505060405180910390fd5b8091505092915050565b600033905090565b620003e4620003cc60201b60201c565b73ffffffffffffffffffffffffffffffffffffffff1660008054906101000a900473ffffffffffffffffffffffffffffffffffffffff1673ffffffffffffffffffffffffffffffffffffffff1614620004a5576040517f08c379a00000000000000000000000000000000000000000000000000000000081526004018080602001828103825260208152602001807f4f776e61626c653a2063616c6c6572206973206e6f7420746865206f776e657281525060200191505060405180910390fd5b600560008273ffffffffffffffffffffffffffffffffffffffff1673ffffffffffffffffffffffffffffffffffffffff16815260200190815260200160002060009054906101000a900460ff16156200054a576040517f08c379a000000000000000000000000000000000000000000000000000000000815260040180806020018281038252602781526020018062005dc26027913960400191505060405180910390fd5b6000600160008373ffffffffffffffffffffffffffffffffffffffff1673ffffffffffffffffffffffffffffffffffffffff1681526020019081526020016000205411156200062757620005e3600160008373ffffffffffffffffffffffffffffffffffffffff1673ffffffffffffffffffffffffffffffffffffffff16815260200190815260200160002054620008b660201b60201c565b600260008373ffffffffffffffffffffffffffffffffffffffff1673ffffffffffffffffffffffffffffffffffffffff168152602001908152602001600020819055505b6001600560008373ffffffffffffffffffffffffffffffffffffffff1673ffffffffffffffffffffffffffffffffffffffff16815260200190815260200160002060006101000a81548160ff0219169083151502179055506006819080600181540180825580915050600190039060005260206000200160009091909190916101000a81548173ffffffffffffffffffffffffffffffffffffffff021916908373ffffffffffffffffffffffffffffffffffffffff16021790555050565b620006f5620003cc60201b60201c565b73ffffffffffffffffffffffffffffffffffffffff1660008054906101000a900473ffffffffffffffffffffffffffffffffffffffff1673ffffffffffffffffffffffffffffffffffffffff1614620007b6576040517f08c379a00000000000000000000000000000000000000000000000000000000081526004018080602001828103825260208152602001807f4f776e61626c653a2063616c6c6572206973206e6f7420746865206f776e657281525060200191505060405180910390fd5b600460008273ffffffffffffffffffffffffffffffffffffffff1673ffffffffffffffffffffffffffffffffffffffff16815260200190815260200160002060009054906101000a900460ff16156200085b576040517f08c379a000000000000000000000000000000000000000000000000000000000815260040180806020018281038252602481526020018062005e0f6024913960400191505060405180910390fd5b6001600460008373ffffffffffffffffffffffffffffffffffffffff1673ffffffffffffffffffffffffffffffffffffffff16815260200190815260200160002060006101000a81548160ff02191690831515021790555050565b600060075482111562000915576040517f08c379a000000000000000000000000000000000000000000000000000000000815260040180806020018281038252602681526020018062005de96026913960400191505060405180910390fd5b6000620009276200094b60201b60201c565b90506200094381846200098560201b62002b391790919060201c565b915050919050565b600080600062000960620009d760201b60201c565b915091506200097e81836200098560201b62002b391790919060201c565b9250505090565b6000620009cf83836040518060400160405280601a81526020017f536166654d6174683a206469766973696f6e206279207a65726f00000000000081525062000cb460201b60201c565b905092915050565b6000806000600754905060006c7e37be2022c0914b2680000000905060005b60068054905081101562000c585782600160006006848154811062000a1757fe5b9060005260206000200160009054906101000a900473ffffffffffffffffffffffffffffffffffffffff1673ffffffffffffffffffffffffffffffffffffffff1673ffffffffffffffffffffffffffffffffffffffff16815260200190815260200160002054118062000b00575081600260006006848154811062000a9857fe5b9060005260206000200160009054906101000a900473ffffffffffffffffffffffffffffffffffffffff1673ffffffffffffffffffffffffffffffffffffffff1673ffffffffffffffffffffffffffffffffffffffff16815260200190815260200160002054115b1562000b24576007546c7e37be2022c0914b26800000009450945050505062000cb0565b62000bb5600160006006848154811062000b3a57fe5b9060005260206000200160009054906101000a900473ffffffffffffffffffffffffffffffffffffffff1673ffffffffffffffffffffffffffffffffffffffff1673ffffffffffffffffffffffffffffffffffffffff168152602001908152602001600020548462000d7f60201b62002b831790919060201c565b925062000c48600260006006848154811062000bcd57fe5b9060005260206000200160009054906101000a900473ffffffffffffffffffffffffffffffffffffffff1673ffffffffffffffffffffffffffffffffffffffff1673ffffffffffffffffffffffffffffffffffffffff168152602001908152602001600020548362000d7f60201b62002b831790919060201c565b91508080600101915050620009f6565b5062000c826c7e37be2022c0914b26800000006007546200098560201b62002b391790919060201c565b82101562000ca7576007546c7e37be2022c0914b268000000093509350505062000cb0565b81819350935050505b9091565b6000808311829062000d64576040517f08c379a00000000000000000000000000000000000000000000000000000000081526004018080602001828103825283818151815260200191508051906020019080838360005b8381101562000d2857808201518184015260208101905062000d0b565b50505050905090810190601f16801562000d565780820380516001836020036101000a031916815260200191505b509250505060405180910390fd5b50600083858162000d7157fe5b049050809150509392505050565b600062000dc983836040518060400160405280601e81526020017f536166654d6174683a207375627472616374696f6e206f766572666c6f77000081525062000dd160201b60201c565b905092915050565b600083831115829062000e82576040517f08c379a00000000000000000000000000000000000000000000000000000000081526004018080602001828103825283818151815260200191508051906020019080838360005b8381101562000e4657808201518184015260208101905062000e29565b50505050905090810190601f16801562000e745780820380516001836020036101000a031916815260200191505b509250505060405180910390fd5b5060008385039050809150509392505050565b614f1d8062000ea56000396000f3fe608060405234801561001057600080fd5b506004361061025e5760003560e01c8063715018a611610146578063a9059cbb116100c3578063d71eb4b511610087578063d71eb4b514610b1e578063dd62ed3e14610b6a578063e57f14e114610be2578063f2fde38b14610c26578063f854336214610c6a578063fc6f946814610c885761025e565b8063a9059cbb14610a06578063ae7b6d1614610a6a578063afcf2fc414610a88578063b609995e14610abc578063cb263fd214610b005761025e565b80638da5cb5b1161010a5780638da5cb5b1461089f5780638e089735146108d357806391c05b0b146108f157806395d89b411461091f578063a457c2d7146109a25761025e565b8063715018a6146107f957806374e47a1e14610803578063786555f9146108215780637c31efb11461083f5780638baa3fd41461085d5761025e565b8063313ce567116101df5780634b0e7216116101a35780634b0e7216146106835780634fbee193146106c757806361feacff14610721578063699abb3c1461073f57806370a082311461076d57806370d5ae05146107c55761025e565b8063313ce56714610574578063317653e0146105955780633557ee77146105b3578063395093511461060157806340e7bdf4146106655761025e565b806313114a9d1161022657806313114a9d1461042c57806316a2f82a1461044a57806318160ddd1461048e57806323b872dd146104ac5780632c1e816d146105305761025e565b806306fdde0314610263578063095ea7b3146102e65780630c9be46d1461034a5780630e8322731461038e578063111e0376146103e8575b600080fd5b61026b610cbc565b6040518080602001828103825283818151815260200191508051906020019080838360005b838110156102ab578082015181840152602081019050610290565b50505050905090810190601f1680156102d85780820380516001836020036101000a031916815260200191505b509250505060405180910390f35b610332600480360360408110156102fc57600080fd5b81019080803573ffffffffffffffffffffffffffffffffffffffff16906020019092919080359060200190929190505050610cf9565b60405180821515815260200191505060405180910390f35b61038c6004803603602081101561036057600080fd5b81019080803573ffffffffffffffffffffffffffffffffffffffff169060200190929190505050610d17565b005b6103d0600480360360208110156103a457600080fd5b81019080803573ffffffffffffffffffffffffffffffffffffffff169060200190929190505050610e23565b60405180821515815260200191505060405180910390f35b61042a600480360360208110156103fe57600080fd5b81019080803573ffffffffffffffffffffffffffffffffffffffff169060200190929190505050610e79565b005b610434611176565b6040518082815260200191505060405180910390f35b61048c6004803603602081101561046057600080fd5b81019080803573ffffffffffffffffffffffffffffffffffffffff1690602001909291905050506111bc565b005b610496611381565b6040518082815260200191505060405180910390f35b610518600480360360608110156104c257600080fd5b81019080803573ffffffffffffffffffffffffffffffffffffffff169060200190929190803573ffffffffffffffffffffffffffffffffffffffff16906020019092919080359060200190929190505050611396565b60405180821515815260200191505060405180910390f35b6105726004803603602081101561054657600080fd5b81019080803573ffffffffffffffffffffffffffffffffffffffff16906020019092919050505061146f565b005b61057c61157b565b604051808260ff16815260200191505060405180910390f35b61059d611584565b6040518082815260200191505060405180910390f35b6105eb600480360360408110156105c957600080fd5b810190808035906020019092919080351515906020019092919050505061158e565b6040518082815260200191505060405180910390f35b61064d6004803603604081101561061757600080fd5b81019080803573ffffffffffffffffffffffffffffffffffffffff1690602001909291908035906020019092919050505061164e565b60405180821515815260200191505060405180910390f35b61066d611701565b6040518082815260200191505060405180910390f35b6106c56004803603602081101561069957600080fd5b81019080803573ffffffffffffffffffffffffffffffffffffffff169060200190929190505050611707565b005b610709600480360360208110156106dd57600080fd5b81019080803573ffffffffffffffffffffffffffffffffffffffff169060200190929190505050611813565b60405180821515815260200191505060405180910390f35b610729611869565b6040518082815260200191505060405180910390f35b61076b6004803603602081101561075557600080fd5b8101908080359060200190929190505050611873565b005b6107af6004803603602081101561078357600080fd5b81019080803573ffffffffffffffffffffffffffffffffffffffff1690602001909291905050506119c9565b6040518082815260200191505060405180910390f35b6107cd611ab4565b604051808273ffffffffffffffffffffffffffffffffffffffff16815260200191505060405180910390f35b610801611ada565b005b61080b611c60565b6040518082815260200191505060405180910390f35b610829611c66565b6040518082815260200191505060405180910390f35b610847611c70565b6040518082815260200191505060405180910390f35b6108896004803603602081101561087357600080fd5b8101908080359060200190929190505050611c7a565b6040518082815260200191505060405180910390f35b6108a7611cfe565b604051808273ffffffffffffffffffffffffffffffffffffffff16815260200191505060405180910390f35b6108db611d27565b6040518082815260200191505060405180910390f35b61091d6004803603602081101561090757600080fd5b8101908080359060200190929190505050611d2d565b005b610927611ebd565b6040518080602001828103825283818151815260200191508051906020019080838360005b8381101561096757808201518184015260208101905061094c565b50505050905090810190601f1680156109945780820380516001836020036101000a031916815260200191505b509250505060405180910390f35b6109ee600480360360408110156109b857600080fd5b81019080803573ffffffffffffffffffffffffffffffffffffffff16906020019092919080359060200190929190505050611efa565b60405180821515815260200191505060405180910390f35b610a5260048036036040811015610a1c57600080fd5b81019080803573ffffffffffffffffffffffffffffffffffffffff16906020019092919080359060200190929190505050611fc7565b60405180821515815260200191505060405180910390f35b610a72611fe5565b6040518082815260200191505060405180910390f35b610a90611feb565b604051808273ffffffffffffffffffffffffffffffffffffffff16815260200191505060405180910390f35b610afe60048036036020811015610ad257600080fd5b81019080803573ffffffffffffffffffffffffffffffffffffffff169060200190929190505050612011565b005b610b0861237e565b6040518082815260200191505060405180910390f35b610b6860048036036080811015610b3457600080fd5b8101908080359060200190929190803590602001909291908035906020019092919080359060200190929190505050612384565b005b610bcc60048036036040811015610b8057600080fd5b81019080803573ffffffffffffffffffffffffffffffffffffffff169060200190929190803573ffffffffffffffffffffffffffffffffffffffff16906020019092919050505061262d565b6040518082815260200191505060405180910390f35b610c2460048036036020811015610bf857600080fd5b81019080803573ffffffffffffffffffffffffffffffffffffffff1690602001909291905050506126b4565b005b610c6860048036036020811015610c3c57600080fd5b81019080803573ffffffffffffffffffffffffffffffffffffffff16906020019092919050505061287a565b005b610c72612a85565b6040518082815260200191505060405180910390f35b610c90612a8b565b604051808273ffffffffffffffffffffffffffffffffffffffff16815260200191505060405180910390f35b60606040518060400160405280600a81526020017f446f6a6920546f6b656e00000000000000000000000000000000000000000000815250905090565b6000610d0d610d06612bcd565b8484612bd5565b6001905092915050565b610d1f612bcd565b73ffffffffffffffffffffffffffffffffffffffff1660008054906101000a900473ffffffffffffffffffffffffffffffffffffffff1673ffffffffffffffffffffffffffffffffffffffff1614610ddf576040517f08c379a00000000000000000000000000000000000000000000000000000000081526004018080602001828103825260208152602001807f4f776e61626c653a2063616c6c6572206973206e6f7420746865206f776e657281525060200191505060405180910390fd5b80601260006101000a81548173ffffffffffffffffffffffffffffffffffffffff021916908373ffffffffffffffffffffffffffffffffffffffff16021790555050565b6000600560008373ffffffffffffffffffffffffffffffffffffffff1673ffffffffffffffffffffffffffffffffffffffff16815260200190815260200160002060009054906101000a900460ff169050919050565b610e81612bcd565b73ffffffffffffffffffffffffffffffffffffffff1660008054906101000a900473ffffffffffffffffffffffffffffffffffffffff1673ffffffffffffffffffffffffffffffffffffffff1614610f41576040517f08c379a00000000000000000000000000000000000000000000000000000000081526004018080602001828103825260208152602001807f4f776e61626c653a2063616c6c6572206973206e6f7420746865206f776e657281525060200191505060405180910390fd5b600560008273ffffffffffffffffffffffffffffffffffffffff1673ffffffffffffffffffffffffffffffffffffffff16815260200190815260200160002060009054906101000a900460ff1615610fe4576040517f08c379a0000000000000000000000000000000000000000000000000000000008152600401808060200182810382526027815260200180614c716027913960400191505060405180910390fd5b6000600160008373ffffffffffffffffffffffffffffffffffffffff1673ffffffffffffffffffffffffffffffffffffffff1681526020019081526020016000205411156110b857611074600160008373ffffffffffffffffffffffffffffffffffffffff1673ffffffffffffffffffffffffffffffffffffffff16815260200190815260200160002054611c7a565b600260008373ffffffffffffffffffffffffffffffffffffffff1673ffffffffffffffffffffffffffffffffffffffff168152602001908152602001600020819055505b6001600560008373ffffffffffffffffffffffffffffffffffffffff1673ffffffffffffffffffffffffffffffffffffffff16815260200190815260200160002060006101000a81548160ff0219169083151502179055506006819080600181540180825580915050600190039060005260206000200160009091909190916101000a81548173ffffffffffffffffffffffffffffffffffffffff021916908373ffffffffffffffffffffffffffffffffffffffff16021790555050565b60006111b7600b546111a9600a5461119b600954600854612ab190919063ffffffff16565b612ab190919063ffffffff16565b612ab190919063ffffffff16565b905090565b6111c4612bcd565b73ffffffffffffffffffffffffffffffffffffffff1660008054906101000a900473ffffffffffffffffffffffffffffffffffffffff1673ffffffffffffffffffffffffffffffffffffffff1614611284576040517f08c379a00000000000000000000000000000000000000000000000000000000081526004018080602001828103825260208152602001807f4f776e61626c653a2063616c6c6572206973206e6f7420746865206f776e657281525060200191505060405180910390fd5b600460008273ffffffffffffffffffffffffffffffffffffffff1673ffffffffffffffffffffffffffffffffffffffff16815260200190815260200160002060009054906101000a900460ff16611326576040517f08c379a0000000000000000000000000000000000000000000000000000000008152600401808060200182810382526022815260200180614cbe6022913960400191505060405180910390fd5b6000600460008373ffffffffffffffffffffffffffffffffffffffff1673ffffffffffffffffffffffffffffffffffffffff16815260200190815260200160002060006101000a81548160ff02191690831515021790555050565b60006c7e37be2022c0914b2680000000905090565b60006113a3848484612dcc565b611464846113af612bcd565b61145f85604051806060016040528060288152602001614d6f60289139600360008b73ffffffffffffffffffffffffffffffffffffffff1673ffffffffffffffffffffffffffffffffffffffff1681526020019081526020016000206000611415612bcd565b73ffffffffffffffffffffffffffffffffffffffff1673ffffffffffffffffffffffffffffffffffffffff168152602001908152602001600020546133459092919063ffffffff16565b612bd5565b600190509392505050565b611477612bcd565b73ffffffffffffffffffffffffffffffffffffffff1660008054906101000a900473ffffffffffffffffffffffffffffffffffffffff1673ffffffffffffffffffffffffffffffffffffffff1614611537576040517f08c379a00000000000000000000000000000000000000000000000000000000081526004018080602001828103825260208152602001807f4f776e61626c653a2063616c6c6572206973206e6f7420746865206f776e657281525060200191505060405180910390fd5b80601460006101000a81548173ffffffffffffffffffffffffffffffffffffffff021916908373ffffffffffffffffffffffffffffffffffffffff16021790555050565b60006012905090565b6000600a54905090565b60006c7e37be2022c0914b2680000000831115611613576040517f08c379a000000000000000000000000000000000000000000000000000000000815260040180806020018281038252601f8152602001807f416d6f756e74206d757374206265206c657373207468616e20737570706c790081525060200191505060405180910390fd5b8161163257600061162384613405565b50505050905080915050611648565b600061163d84613405565b505050915050809150505b92915050565b60006116f761165b612bcd565b846116f2856003600061166c612bcd565b73ffffffffffffffffffffffffffffffffffffffff1673ffffffffffffffffffffffffffffffffffffffff16815260200190815260200160002060008973ffffffffffffffffffffffffffffffffffffffff1673ffffffffffffffffffffffffffffffffffffffff16815260200190815260200160002054612ab190919063ffffffff16565b612bd5565b6001905092915050565b60115481565b61170f612bcd565b73ffffffffffffffffffffffffffffffffffffffff1660008054906101000a900473ffffffffffffffffffffffffffffffffffffffff1673ffffffffffffffffffffffffffffffffffffffff16146117cf576040517f08c379a00000000000000000000000000000000000000000000000000000000081526004018080602001828103825260208152602001807f4f776e61626c653a2063616c6c6572206973206e6f7420746865206f776e657281525060200191505060405180910390fd5b80601360006101000a81548173ffffffffffffffffffffffffffffffffffffffff021916908373ffffffffffffffffffffffffffffffffffffffff16021790555050565b6000600460008373ffffffffffffffffffffffffffffffffffffffff1673ffffffffffffffffffffffffffffffffffffffff16815260200190815260200160002060009054906101000a900460ff169050919050565b6000600b54905090565b61187b612bcd565b73ffffffffffffffffffffffffffffffffffffffff1660008054906101000a900473ffffffffffffffffffffffffffffffffffffffff1673ffffffffffffffffffffffffffffffffffffffff161461193b576040517f08c379a00000000000000000000000000000000000000000000000000000000081526004018080602001828103825260208152602001807f4f776e61626c653a2063616c6c6572206973206e6f7420746865206f776e657281525060200191505060405180910390fd5b6001811015801561194d5750600a8111155b6119bf576040517f08c379a000000000000000000000000000000000000000000000000000000000815260040180806020018281038252601e8152602001807f56616c7565206973206f757473696465206f662072616e676520312d3130000081525060200191505060405180910390fd5b80600c8190555050565b6000600560008373ffffffffffffffffffffffffffffffffffffffff1673ffffffffffffffffffffffffffffffffffffffff16815260200190815260200160002060009054906101000a900460ff1615611a6457600260008373ffffffffffffffffffffffffffffffffffffffff1673ffffffffffffffffffffffffffffffffffffffff168152602001908152602001600020549050611aaf565b611aac600160008473ffffffffffffffffffffffffffffffffffffffff1673ffffffffffffffffffffffffffffffffffffffff16815260200190815260200160002054611c7a565b90505b919050565b601360009054906101000a900473ffffffffffffffffffffffffffffffffffffffff1681565b611ae2612bcd565b73ffffffffffffffffffffffffffffffffffffffff1660008054906101000a900473ffffffffffffffffffffffffffffffffffffffff1673ffffffffffffffffffffffffffffffffffffffff1614611ba2576040517f08c379a00000000000000000000000000000000000000000000000000000000081526004018080602001828103825260208152602001807f4f776e61626c653a2063616c6c6572206973206e6f7420746865206f776e657281525060200191505060405180910390fd5b600073ffffffffffffffffffffffffffffffffffffffff1660008054906101000a900473ffffffffffffffffffffffffffffffffffffffff1673ffffffffffffffffffffffffffffffffffffffff167f8be0079c531659141344cd1fd0a4f28419497f9722a3daafe3b4186f6b6457e060405160405180910390a360008060006101000a81548173ffffffffffffffffffffffffffffffffffffffff021916908373ffffffffffffffffffffffffffffffffffffffff160217905550565b600d5481565b6000600954905090565b6000600854905090565b6000600754821115611cd7576040517f08c379a0000000000000000000000000000000000000000000000000000000008152600401808060200182810382526026815260200180614e096026913960400191505060405180910390fd5b6000611ce161345d565b9050611cf68184612b3990919063ffffffff16565b915050919050565b60008060009054906101000a900473ffffffffffffffffffffffffffffffffffffffff16905090565b60105481565b6000611d37612bcd565b9050600560008273ffffffffffffffffffffffffffffffffffffffff1673ffffffffffffffffffffffffffffffffffffffff16815260200190815260200160002060009054906101000a900460ff1615611ddc576040517f08c379a000000000000000000000000000000000000000000000000000000000815260040180806020018281038252602c815260200180614e53602c913960400191505060405180910390fd5b6000611de783613405565b505050509050611e3f81600160008573ffffffffffffffffffffffffffffffffffffffff1673ffffffffffffffffffffffffffffffffffffffff16815260200190815260200160002054612b8390919063ffffffff16565b600160008473ffffffffffffffffffffffffffffffffffffffff1673ffffffffffffffffffffffffffffffffffffffff16815260200190815260200160002081905550611e9781600754612b8390919063ffffffff16565b600781905550611eb283600854612ab190919063ffffffff16565b600881905550505050565b60606040518060400160405280600481526020017f446f6a6900000000000000000000000000000000000000000000000000000000815250905090565b6000611fbd611f07612bcd565b84611fb885604051806060016040528060258152602001614ea06025913960036000611f31612bcd565b73ffffffffffffffffffffffffffffffffffffffff1673ffffffffffffffffffffffffffffffffffffffff16815260200190815260200160002060008a73ffffffffffffffffffffffffffffffffffffffff1673ffffffffffffffffffffffffffffffffffffffff168152602001908152602001600020546133459092919063ffffffff16565b612bd5565b6001905092915050565b6000611fdb611fd4612bcd565b8484612dcc565b6001905092915050565b600c5481565b601260009054906101000a900473ffffffffffffffffffffffffffffffffffffffff1681565b612019612bcd565b73ffffffffffffffffffffffffffffffffffffffff1660008054906101000a900473ffffffffffffffffffffffffffffffffffffffff1673ffffffffffffffffffffffffffffffffffffffff16146120d9576040517f08c379a00000000000000000000000000000000000000000000000000000000081526004018080602001828103825260208152602001807f4f776e61626c653a2063616c6c6572206973206e6f7420746865206f776e657281525060200191505060405180910390fd5b600560008273ffffffffffffffffffffffffffffffffffffffff1673ffffffffffffffffffffffffffffffffffffffff16815260200190815260200160002060009054906101000a900460ff1661217b576040517f08c379a0000000000000000000000000000000000000000000000000000000008152600401808060200182810382526026815260200180614c986026913960400191505060405180910390fd5b60005b60068054905081101561237a578173ffffffffffffffffffffffffffffffffffffffff16600682815481106121af57fe5b9060005260206000200160009054906101000a900473ffffffffffffffffffffffffffffffffffffffff1673ffffffffffffffffffffffffffffffffffffffff16141561236d5760066001600680549050038154811061220b57fe5b9060005260206000200160009054906101000a900473ffffffffffffffffffffffffffffffffffffffff166006828154811061224357fe5b9060005260206000200160006101000a81548173ffffffffffffffffffffffffffffffffffffffff021916908373ffffffffffffffffffffffffffffffffffffffff1602179055506000600260008473ffffffffffffffffffffffffffffffffffffffff1673ffffffffffffffffffffffffffffffffffffffff168152602001908152602001600020819055506000600560008473ffffffffffffffffffffffffffffffffffffffff1673ffffffffffffffffffffffffffffffffffffffff16815260200190815260200160002060006101000a81548160ff021916908315150217905550600680548061233357fe5b6001900381819060005260206000200160006101000a81549073ffffffffffffffffffffffffffffffffffffffff0219169055905561237a565b808060010191505061217e565b5050565b600e5481565b61238c612bcd565b73ffffffffffffffffffffffffffffffffffffffff1660008054906101000a900473ffffffffffffffffffffffffffffffffffffffff1673ffffffffffffffffffffffffffffffffffffffff161461244c576040517f08c379a00000000000000000000000000000000000000000000000000000000081526004018080602001828103825260208152602001807f4f776e61626c653a2063616c6c6572206973206e6f7420746865206f776e657281525060200191505060405180910390fd5b61248381612475846124678789612ab190919063ffffffff16565b612ab190919063ffffffff16565b612ab190919063ffffffff16565b6011819055506005841015801561249b5750600a8411155b6124f0576040517f08c379a0000000000000000000000000000000000000000000000000000000008152600401808060200182810382526028815260200180614c496028913960400191505060405180910390fd5b600582101580156125025750600a8211155b612557576040517f08c379a0000000000000000000000000000000000000000000000000000000008152600401808060200182810382526026815260200180614d496026913960400191505060405180910390fd5b600a8311156125b1576040517f08c379a0000000000000000000000000000000000000000000000000000000008152600401808060200182810382526023815260200180614ec56023913960400191505060405180910390fd5b600a81111561260b576040517f08c379a0000000000000000000000000000000000000000000000000000000008152600401808060200182810382526021815260200180614e7f6021913960400191505060405180910390fd5b83600d8190555082600e8190555081600f819055508060108190555050505050565b6000600360008473ffffffffffffffffffffffffffffffffffffffff1673ffffffffffffffffffffffffffffffffffffffff16815260200190815260200160002060008373ffffffffffffffffffffffffffffffffffffffff1673ffffffffffffffffffffffffffffffffffffffff16815260200190815260200160002054905092915050565b6126bc612bcd565b73ffffffffffffffffffffffffffffffffffffffff1660008054906101000a900473ffffffffffffffffffffffffffffffffffffffff1673ffffffffffffffffffffffffffffffffffffffff161461277c576040517f08c379a00000000000000000000000000000000000000000000000000000000081526004018080602001828103825260208152602001807f4f776e61626c653a2063616c6c6572206973206e6f7420746865206f776e657281525060200191505060405180910390fd5b600460008273ffffffffffffffffffffffffffffffffffffffff1673ffffffffffffffffffffffffffffffffffffffff16815260200190815260200160002060009054906101000a900460ff161561281f576040517f08c379a0000000000000000000000000000000000000000000000000000000008152600401808060200182810382526024815260200180614e2f6024913960400191505060405180910390fd5b6001600460008373ffffffffffffffffffffffffffffffffffffffff1673ffffffffffffffffffffffffffffffffffffffff16815260200190815260200160002060006101000a81548160ff02191690831515021790555050565b612882612bcd565b73ffffffffffffffffffffffffffffffffffffffff1660008054906101000a900473ffffffffffffffffffffffffffffffffffffffff1673ffffffffffffffffffffffffffffffffffffffff1614612942576040517f08c379a00000000000000000000000000000000000000000000000000000000081526004018080602001828103825260208152602001807f4f776e61626c653a2063616c6c6572206973206e6f7420746865206f776e657281525060200191505060405180910390fd5b600073ffffffffffffffffffffffffffffffffffffffff168173ffffffffffffffffffffffffffffffffffffffff1614156129c8576040517f08c379a0000000000000000000000000000000000000000000000000000000008152600401808060200182810382526026815260200180614ce06026913960400191505060405180910390fd5b8073ffffffffffffffffffffffffffffffffffffffff1660008054906101000a900473ffffffffffffffffffffffffffffffffffffffff1673ffffffffffffffffffffffffffffffffffffffff167f8be0079c531659141344cd1fd0a4f28419497f9722a3daafe3b4186f6b6457e060405160405180910390a3806000806101000a81548173ffffffffffffffffffffffffffffffffffffffff021916908373ffffffffffffffffffffffffffffffffffffffff16021790555050565b600f5481565b601460009054906101000a900473ffffffffffffffffffffffffffffffffffffffff1681565b600080828401905083811015612b2f576040517f08c379a000000000000000000000000000000000000000000000000000000000815260040180806020018281038252601b8152602001807f536166654d6174683a206164646974696f6e206f766572666c6f77000000000081525060200191505060405180910390fd5b8091505092915050565b6000612b7b83836040518060400160405280601a81526020017f536166654d6174683a206469766973696f6e206279207a65726f000000000000815250613488565b905092915050565b6000612bc583836040518060400160405280601e81526020017f536166654d6174683a207375627472616374696f6e206f766572666c6f770000815250613345565b905092915050565b600033905090565b600073ffffffffffffffffffffffffffffffffffffffff168373ffffffffffffffffffffffffffffffffffffffff161415612c5b576040517f08c379a0000000000000000000000000000000000000000000000000000000008152600401808060200182810382526024815260200180614de56024913960400191505060405180910390fd5b600073ffffffffffffffffffffffffffffffffffffffff168273ffffffffffffffffffffffffffffffffffffffff161415612ce1576040517f08c379a0000000000000000000000000000000000000000000000000000000008152600401808060200182810382526022815260200180614d066022913960400191505060405180910390fd5b80600360008573ffffffffffffffffffffffffffffffffffffffff1673ffffffffffffffffffffffffffffffffffffffff16815260200190815260200160002060008473ffffffffffffffffffffffffffffffffffffffff1673ffffffffffffffffffffffffffffffffffffffff168152602001908152602001600020819055508173ffffffffffffffffffffffffffffffffffffffff168373ffffffffffffffffffffffffffffffffffffffff167f8c5be1e5ebec7d5bd14f71427d1e84f3dd0314c0f7b2291e5b200ac8c7c3b925836040518082815260200191505060405180910390a3505050565b600073ffffffffffffffffffffffffffffffffffffffff168373ffffffffffffffffffffffffffffffffffffffff161415612e52576040517f08c379a0000000000000000000000000000000000000000000000000000000008152600401808060200182810382526025815260200180614dc06025913960400191505060405180910390fd5b600073ffffffffffffffffffffffffffffffffffffffff168273ffffffffffffffffffffffffffffffffffffffff161415612ed8576040517f08c379a0000000000000000000000000000000000000000000000000000000008152600401808060200182810382526023815260200180614c266023913960400191505060405180910390fd5b60008111612f31576040517f08c379a0000000000000000000000000000000000000000000000000000000008152600401808060200182810382526029815260200180614d976029913960400191505060405180910390fd5b6000600c549050600460008573ffffffffffffffffffffffffffffffffffffffff1673ffffffffffffffffffffffffffffffffffffffff16815260200190815260200160002060009054906101000a900460ff1680612fd95750600460008473ffffffffffffffffffffffffffffffffffffffff1673ffffffffffffffffffffffffffffffffffffffff16815260200190815260200160002060009054906101000a900460ff165b15612feb576000600c8190555061303f565b6000612ff68361354e565b905060006130038261357f565b90506000613010836135b1565b9050600061301d846135e3565b905061302883613615565b613031826138dc565b61303a81613ba3565b505050505b600560008573ffffffffffffffffffffffffffffffffffffffff1673ffffffffffffffffffffffffffffffffffffffff16815260200190815260200160002060009054906101000a900460ff1680156130e25750600560008473ffffffffffffffffffffffffffffffffffffffff1673ffffffffffffffffffffffffffffffffffffffff16815260200190815260200160002060009054906101000a900460ff16155b156130f7576130f2848484613e6a565b61332e565b600560008573ffffffffffffffffffffffffffffffffffffffff1673ffffffffffffffffffffffffffffffffffffffff16815260200190815260200160002060009054906101000a900460ff1615801561319a5750600560008473ffffffffffffffffffffffffffffffffffffffff1673ffffffffffffffffffffffffffffffffffffffff16815260200190815260200160002060009054906101000a900460ff165b156131af576131aa8484846140bd565b61332d565b600560008573ffffffffffffffffffffffffffffffffffffffff1673ffffffffffffffffffffffffffffffffffffffff16815260200190815260200160002060009054906101000a900460ff161580156132535750600560008473ffffffffffffffffffffffffffffffffffffffff1673ffffffffffffffffffffffffffffffffffffffff16815260200190815260200160002060009054906101000a900460ff16155b1561326857613263848484614310565b61332c565b600560008573ffffffffffffffffffffffffffffffffffffffff1673ffffffffffffffffffffffffffffffffffffffff16815260200190815260200160002060009054906101000a900460ff16801561330a5750600560008473ffffffffffffffffffffffffffffffffffffffff1673ffffffffffffffffffffffffffffffffffffffff16815260200190815260200160002060009054906101000a900460ff165b1561331f5761331a8484846144ce565b61332b565b61332a848484614310565b5b5b5b5b600c54811461333f5780600c819055505b50505050565b60008383111582906133f2576040517f08c379a00000000000000000000000000000000000000000000000000000000081526004018080602001828103825283818151815260200191508051906020019080838360005b838110156133b757808201518184015260208101905061339c565b50505050905090810190601f1680156133e45780820380516001836020036101000a031916815260200191505b509250505060405180910390fd5b5060008385039050809150509392505050565b6000806000806000806000613419886147b6565b91509150600061342761345d565b905060008060006134398c86866147f8565b92509250925082828288889a509a509a509a509a5050505050505091939590929450565b600080600061346a614876565b915091506134818183612b3990919063ffffffff16565b9250505090565b60008083118290613534576040517f08c379a00000000000000000000000000000000000000000000000000000000081526004018080602001828103825283818151815260200191508051906020019080838360005b838110156134f95780820151818401526020810190506134de565b50505050905090810190601f1680156135265780820380516001836020036101000a031916815260200191505b509250505060405180910390fd5b50600083858161354057fe5b049050809150509392505050565b6000613578606461356a600c5485614b3390919063ffffffff16565b612b3990919063ffffffff16565b9050919050565b60006135aa60115461359c600e5485614b3390919063ffffffff16565b612b3990919063ffffffff16565b9050919050565b60006135dc6011546135ce600f5485614b3390919063ffffffff16565b612b3990919063ffffffff16565b9050919050565b600061360e60115461360060105485614b3390919063ffffffff16565b612b3990919063ffffffff16565b9050919050565b600073ffffffffffffffffffffffffffffffffffffffff16601260009054906101000a900473ffffffffffffffffffffffffffffffffffffffff1673ffffffffffffffffffffffffffffffffffffffff161415613671576138d9565b600061367b61345d565b905060006136928284614b3390919063ffffffff16565b90506136a983600954612ab190919063ffffffff16565b6009819055506137238160016000601260009054906101000a900473ffffffffffffffffffffffffffffffffffffffff1673ffffffffffffffffffffffffffffffffffffffff1673ffffffffffffffffffffffffffffffffffffffff16815260200190815260200160002054612ab190919063ffffffff16565b60016000601260009054906101000a900473ffffffffffffffffffffffffffffffffffffffff1673ffffffffffffffffffffffffffffffffffffffff1673ffffffffffffffffffffffffffffffffffffffff1681526020019081526020016000208190555060056000601260009054906101000a900473ffffffffffffffffffffffffffffffffffffffff1673ffffffffffffffffffffffffffffffffffffffff1673ffffffffffffffffffffffffffffffffffffffff16815260200190815260200160002060009054906101000a900460ff16156138d6576138708360026000601260009054906101000a900473ffffffffffffffffffffffffffffffffffffffff1673ffffffffffffffffffffffffffffffffffffffff1673ffffffffffffffffffffffffffffffffffffffff16815260200190815260200160002054612ab190919063ffffffff16565b60026000601260009054906101000a900473ffffffffffffffffffffffffffffffffffffffff1673ffffffffffffffffffffffffffffffffffffffff1673ffffffffffffffffffffffffffffffffffffffff168152602001908152602001600020819055505b50505b50565b600073ffffffffffffffffffffffffffffffffffffffff16601360009054906101000a900473ffffffffffffffffffffffffffffffffffffffff1673ffffffffffffffffffffffffffffffffffffffff16141561393857613ba0565b600061394261345d565b905060006139598284614b3390919063ffffffff16565b905061397083600a54612ab190919063ffffffff16565b600a819055506139ea8160016000601360009054906101000a900473ffffffffffffffffffffffffffffffffffffffff1673ffffffffffffffffffffffffffffffffffffffff1673ffffffffffffffffffffffffffffffffffffffff16815260200190815260200160002054612ab190919063ffffffff16565b60016000601360009054906101000a900473ffffffffffffffffffffffffffffffffffffffff1673ffffffffffffffffffffffffffffffffffffffff1673ffffffffffffffffffffffffffffffffffffffff1681526020019081526020016000208190555060056000601360009054906101000a900473ffffffffffffffffffffffffffffffffffffffff1673ffffffffffffffffffffffffffffffffffffffff1673ffffffffffffffffffffffffffffffffffffffff16815260200190815260200160002060009054906101000a900460ff1615613b9d57613b378360026000601360009054906101000a900473ffffffffffffffffffffffffffffffffffffffff1673ffffffffffffffffffffffffffffffffffffffff1673ffffffffffffffffffffffffffffffffffffffff16815260200190815260200160002054612ab190919063ffffffff16565b60026000601360009054906101000a900473ffffffffffffffffffffffffffffffffffffffff1673ffffffffffffffffffffffffffffffffffffffff1673ffffffffffffffffffffffffffffffffffffffff168152602001908152602001600020819055505b50505b50565b600073ffffffffffffffffffffffffffffffffffffffff16601460009054906101000a900473ffffffffffffffffffffffffffffffffffffffff1673ffffffffffffffffffffffffffffffffffffffff161415613bff57613e67565b6000613c0961345d565b90506000613c208284614b3390919063ffffffff16565b9050613c3783600b54612ab190919063ffffffff16565b600b81905550613cb18160016000601460009054906101000a900473ffffffffffffffffffffffffffffffffffffffff1673ffffffffffffffffffffffffffffffffffffffff1673ffffffffffffffffffffffffffffffffffffffff16815260200190815260200160002054612ab190919063ffffffff16565b60016000601460009054906101000a900473ffffffffffffffffffffffffffffffffffffffff1673ffffffffffffffffffffffffffffffffffffffff1673ffffffffffffffffffffffffffffffffffffffff1681526020019081526020016000208190555060056000601460009054906101000a900473ffffffffffffffffffffffffffffffffffffffff1673ffffffffffffffffffffffffffffffffffffffff1673ffffffffffffffffffffffffffffffffffffffff16815260200190815260200160002060009054906101000a900460ff1615613e6457613dfe8360026000601460009054906101000a900473ffffffffffffffffffffffffffffffffffffffff1673ffffffffffffffffffffffffffffffffffffffff1673ffffffffffffffffffffffffffffffffffffffff16815260200190815260200160002054612ab190919063ffffffff16565b60026000601460009054906101000a900473ffffffffffffffffffffffffffffffffffffffff1673ffffffffffffffffffffffffffffffffffffffff1673ffffffffffffffffffffffffffffffffffffffff168152602001908152602001600020819055505b50505b50565b6000806000806000613e7b86613405565b94509450945094509450613ed786600260008b73ffffffffffffffffffffffffffffffffffffffff1673ffffffffffffffffffffffffffffffffffffffff16815260200190815260200160002054612b8390919063ffffffff16565b600260008a73ffffffffffffffffffffffffffffffffffffffff1673ffffffffffffffffffffffffffffffffffffffff16815260200190815260200160002081905550613f6c85600160008b73ffffffffffffffffffffffffffffffffffffffff1673ffffffffffffffffffffffffffffffffffffffff16815260200190815260200160002054612b8390919063ffffffff16565b600160008a73ffffffffffffffffffffffffffffffffffffffff1673ffffffffffffffffffffffffffffffffffffffff1681526020019081526020016000208190555061400184600160008a73ffffffffffffffffffffffffffffffffffffffff1673ffffffffffffffffffffffffffffffffffffffff16815260200190815260200160002054612ab190919063ffffffff16565b600160008973ffffffffffffffffffffffffffffffffffffffff1673ffffffffffffffffffffffffffffffffffffffff1681526020019081526020016000208190555061404e8382614bb9565b8673ffffffffffffffffffffffffffffffffffffffff168873ffffffffffffffffffffffffffffffffffffffff167fddf252ad1be2c89b69c2b068fc378daa952ba7f163c4a11628f55a4df523b3ef846040518082815260200191505060405180910390a35050505050505050565b60008060008060006140ce86613405565b9450945094509450945061412a85600160008b73ffffffffffffffffffffffffffffffffffffffff1673ffffffffffffffffffffffffffffffffffffffff16815260200190815260200160002054612b8390919063ffffffff16565b600160008a73ffffffffffffffffffffffffffffffffffffffff1673ffffffffffffffffffffffffffffffffffffffff168152602001908152602001600020819055506141bf82600260008a73ffffffffffffffffffffffffffffffffffffffff1673ffffffffffffffffffffffffffffffffffffffff16815260200190815260200160002054612ab190919063ffffffff16565b600260008973ffffffffffffffffffffffffffffffffffffffff1673ffffffffffffffffffffffffffffffffffffffff1681526020019081526020016000208190555061425484600160008a73ffffffffffffffffffffffffffffffffffffffff1673ffffffffffffffffffffffffffffffffffffffff16815260200190815260200160002054612ab190919063ffffffff16565b600160008973ffffffffffffffffffffffffffffffffffffffff1673ffffffffffffffffffffffffffffffffffffffff168152602001908152602001600020819055506142a18382614bb9565b8673ffffffffffffffffffffffffffffffffffffffff168873ffffffffffffffffffffffffffffffffffffffff167fddf252ad1be2c89b69c2b068fc378daa952ba7f163c4a11628f55a4df523b3ef846040518082815260200191505060405180910390a35050505050505050565b600080600080600061432186613405565b9450945094509450945061437d85600160008b73ffffffffffffffffffffffffffffffffffffffff1673ffffffffffffffffffffffffffffffffffffffff16815260200190815260200160002054612b8390919063ffffffff16565b600160008a73ffffffffffffffffffffffffffffffffffffffff1673ffffffffffffffffffffffffffffffffffffffff1681526020019081526020016000208190555061441284600160008a73ffffffffffffffffffffffffffffffffffffffff1673ffffffffffffffffffffffffffffffffffffffff16815260200190815260200160002054612ab190919063ffffffff16565b600160008973ffffffffffffffffffffffffffffffffffffffff1673ffffffffffffffffffffffffffffffffffffffff1681526020019081526020016000208190555061445f8382614bb9565b8673ffffffffffffffffffffffffffffffffffffffff168873ffffffffffffffffffffffffffffffffffffffff167fddf252ad1be2c89b69c2b068fc378daa952ba7f163c4a11628f55a4df523b3ef846040518082815260200191505060405180910390a35050505050505050565b60008060008060006144df86613405565b9450945094509450945061453b86600260008b73ffffffffffffffffffffffffffffffffffffffff1673ffffffffffffffffffffffffffffffffffffffff16815260200190815260200160002054612b8390919063ffffffff16565b600260008a73ffffffffffffffffffffffffffffffffffffffff1673ffffffffffffffffffffffffffffffffffffffff168152602001908152602001600020819055506145d085600160008b73ffffffffffffffffffffffffffffffffffffffff1673ffffffffffffffffffffffffffffffffffffffff16815260200190815260200160002054612b8390919063ffffffff16565b600160008a73ffffffffffffffffffffffffffffffffffffffff1673ffffffffffffffffffffffffffffffffffffffff1681526020019081526020016000208190555061466582600260008a73ffffffffffffffffffffffffffffffffffffffff1673ffffffffffffffffffffffffffffffffffffffff16815260200190815260200160002054612ab190919063ffffffff16565b600260008973ffffffffffffffffffffffffffffffffffffffff1673ffffffffffffffffffffffffffffffffffffffff168152602001908152602001600020819055506146fa84600160008a73ffffffffffffffffffffffffffffffffffffffff1673ffffffffffffffffffffffffffffffffffffffff16815260200190815260200160002054612ab190919063ffffffff16565b600160008973ffffffffffffffffffffffffffffffffffffffff1673ffffffffffffffffffffffffffffffffffffffff168152602001908152602001600020819055506147478382614bb9565b8673ffffffffffffffffffffffffffffffffffffffff168873ffffffffffffffffffffffffffffffffffffffff167fddf252ad1be2c89b69c2b068fc378daa952ba7f163c4a11628f55a4df523b3ef846040518082815260200191505060405180910390a35050505050505050565b60008060006147c48461354e565b905060006147d182614bf3565b905060006147e88387612b8390919063ffffffff16565b9050808294509450505050915091565b6000806000806148198561480b8961354e565b614b3390919063ffffffff16565b905060006148308689614b3390919063ffffffff16565b905060006148478383612b8390919063ffffffff16565b9050600061485e888a614b3390919063ffffffff16565b90508282829650965096505050505093509350939050565b6000806000600754905060006c7e37be2022c0914b2680000000905060005b600680549050811015614ae0578260016000600684815481106148b457fe5b9060005260206000200160009054906101000a900473ffffffffffffffffffffffffffffffffffffffff1673ffffffffffffffffffffffffffffffffffffffff1673ffffffffffffffffffffffffffffffffffffffff16815260200190815260200160002054118061499b575081600260006006848154811061493357fe5b9060005260206000200160009054906101000a900473ffffffffffffffffffffffffffffffffffffffff1673ffffffffffffffffffffffffffffffffffffffff1673ffffffffffffffffffffffffffffffffffffffff16815260200190815260200160002054115b156149bd576007546c7e37be2022c0914b268000000094509450505050614b2f565b614a4660016000600684815481106149d157fe5b9060005260206000200160009054906101000a900473ffffffffffffffffffffffffffffffffffffffff1673ffffffffffffffffffffffffffffffffffffffff1673ffffffffffffffffffffffffffffffffffffffff1681526020019081526020016000205484612b8390919063ffffffff16565b9250614ad16002600060068481548110614a5c57fe5b9060005260206000200160009054906101000a900473ffffffffffffffffffffffffffffffffffffffff1673ffffffffffffffffffffffffffffffffffffffff1673ffffffffffffffffffffffffffffffffffffffff1681526020019081526020016000205483612b8390919063ffffffff16565b91508080600101915050614895565b50614b036c7e37be2022c0914b2680000000600754612b3990919063ffffffff16565b821015614b26576007546c7e37be2022c0914b2680000000935093505050614b2f565b81819350935050505b9091565b600080831415614b465760009050614bb3565b6000828402905082848281614b5757fe5b0414614bae576040517f08c379a0000000000000000000000000000000000000000000000000000000008152600401808060200182810382526021815260200180614d286021913960400191505060405180910390fd5b809150505b92915050565b614bce82600754612b8390919063ffffffff16565b600781905550614be981600854612ab190919063ffffffff16565b6008819055505050565b6000614c1e601154614c10600d5485614b3390919063ffffffff16565b612b3990919063ffffffff16565b905091905056fe45524332303a207472616e7366657220746f20746865207a65726f20616464726573735f686f6c646572546178416c6c6f63206973206f757473696465206f662072616e676520352d31304163636f756e7420697320616c7265616479206578636c756465642066726f6d207265776172644163636f756e7420697320616c726561647920696e636c7564656420696e20726577617264734163636f756e7420697320616c726561647920696e636c7564656420696e206665654f776e61626c653a206e6577206f776e657220697320746865207a65726f206164647265737345524332303a20617070726f766520746f20746865207a65726f2061646472657373536166654d6174683a206d756c7469706c69636174696f6e206f766572666c6f775f6275726e546178416c6c6f63206973206f757473696465206f662072616e676520352d313045524332303a207472616e7366657220616d6f756e74206578636565647320616c6c6f77616e63655472616e7366657220616d6f756e74206d7573742062652067726561746572207468616e207a65726f45524332303a207472616e736665722066726f6d20746865207a65726f206164647265737345524332303a20617070726f76652066726f6d20746865207a65726f2061646472657373416d6f756e74206d757374206265206c657373207468616e20746f74616c20726577617264734163636f756e7420697320616c7265616479206578636c756465642066726f6d206665654578636c75646564206164647265737365732063616e6e6f742063616c6c20746869732066756e6374696f6e5f61646d696e546178416c6c6f632069732067726561746572207468616e20313045524332303a2064656372656173656420616c6c6f77616e63652062656c6f77207a65726f5f63686172697479546178416c6c6f632069732067726561746572207468616e203130a26469706673582212200c05c46dd29ce9e1c89b8c21ae8e92132c681ed5271289160dc6961a87a49bc964736f6c634300070400334163636f756e7420697320616c7265616479206578636c756465642066726f6d20726577617264416d6f756e74206d757374206265206c657373207468616e20746f74616c20726577617264734163636f756e7420697320616c7265616479206578636c756465642066726f6d20666565",
  "immutableReferences": {},
  "source": "/*////////////////////////////////////////////////////////////////////////////////////////////////////////////\r\n                                                        \r\n                                                         `` `````                                   \r\n                                                      ```..-:://-`                                  \r\n                                                ````..-://+++++/.`                                  \r\n                                             ```.-://+++++++++/-`                                   \r\n                                           ``.-:+++oo++++++++o/.`                                   \r\n                                        ``.:/+++++++++++++++++/``                                   \r\n                                     ``.:/+++++++++++++++++++o/.`                                   \r\n                               `   ``-:+++++++++++++++++++++++/-`                                   \r\n                                 `.-:++++++++++++++++++++++++++/.`                                  \r\n                              ``.-/++++++++++++++++++++++++++oo+-`                                  \r\n                             `.-/++++oo+++++++++++++++++++++++o+/.`                                 \r\n                      `    ``.:+++++o++++++++++++++++++++++++++++/.```                              \r\n                          `.:/++++++++++++++++++++++++++++++++++++/.`                               \r\n                         `.:++++o++++o+++++++++++++++++++++++++++++/.```                            \r\n                         .:+++++++++++++++++++++++++++++++++++++++++:.`    `   ``.`                 \r\n                        `:++++++++++++++++++++++++++++++++++++++++++/:.   `    `-:.`                \r\n                       `-/+++++++++++++++++++++++++++++++++++++++++++/-`       ./+:.`               \r\n                      `.:+++++++++++++++++++++++++++++++++++++++++++++/-`  `  `-/+/:.`              \r\n                `     `./o+++++++++++++++++++o+++++++++++++++++++++++++:.  `  .:++++:.`             \r\n               `.`    `./o++++++++++++++++/::/+++++++++++++++++++++++++:.``  `-/+o++/-`             \r\n              `-:-`   `./o++++++++++++++++/:----::/++++++++++++++++++++/-`  `.:++++++/.`            \r\n             `./+:.`   .:+++++++++++++++oo+:--------::/++++++++++++++++/-`  `:/+++++++:`            \r\n             `:++/-`   `-++++++++++++++++++:---.--------:/+++++++++++++/-```-/++++++++/.            \r\n             .++++/-`  `.+o+++++++++++++o+/:--------------:/++oo+++++++/.``./++++++o+++-``          \r\n            `-+o+++/-` ``:+++++++++++++++/:-----------------:/+o+++o+++:.`./+o+++++++++:`           \r\n            `:++++++/-```./++++++++++++++:--------------------:/+o++++/:../+o+++++++++o/.           \r\n            `/+++o++++:```-+++++++++++++:-----------------.----:/+++++/--/o++o+++++++++/.`          \r\n            `++++++++++/-`.:++++/+++o++:-------------------------/++++/:/++++++++++++++/.`          \r\n            `++++++++++++/--/+/::/++o+/--------------------------:/+++++oo+++++++++++++/.           \r\n            `++++++++++++o+///:--/+o+/----------------------------/+++++o++++++++++++++/.           \r\n            `++++++++++++++++/---:+++/----------------------------/+++//+++++++++++++++/.           \r\n            `/+++++++++++++++:----:::--:::------------------------/++/::/o+++++++++++++/.           \r\n            `:++++++++++++++/------:--:---------.------------------:::--/oo+++oo++++o++:`           \r\n            `-++++++++++++o+:-----------:-:/+ossyhddhysso+/:------------:++++++++++++++:`           \r\n             ./++++++++++++/:---------:/syhmmdhyyyyyyyhhddmhso/----------:++o++++++++++-`           \r\n             `:++++++++++/:---------:oyy+:+ddyooossssssssddo:ohs+:--------:/++++++++o+/.            \r\n              ./++o+++++/:---------/sh/`` .odhsososssooshms. `.oho:---------/+o+++++++:`            \r\n              `-+++++++/-------::::+m+`  `-smdssosssoosshmy-`` `sh/-----:----:+++++++/.`            \r\n               .:+++o+:-------::::/om. ` `/hmyossoosssosydd/  ``+h+-::--------:+++oo/-`             \r\n               `.:+++/-------::::::sm` `` `+ddsosoossosshdo` ` `/d+:--:--------:++++:.              \r\n                `./+/-------::::::/sd`  `` -sdhososoossydy- `  `-do:-:::::-----:/++:.`              \r\n                 `.::------:::::::/yh      `:ydyssoosssdh/`     -do:::::::------:/:.`               \r\n                 ``.-------:::::::/yy    `` `/hdssososhd+`      .ds::::::::-------.`                \r\n                 ``.------::::::::+hy     ```.omhsssshds.  `    `hs/::::::-------.`                 \r\n                  `.------::::::::+hs   `  ```-ymysoydh:       ``yy/::::::-------.`                 \r\n                  `.------::::::::+d+`/:-`  ```:mdssdd/` `  `-//.yy+:::::::------.`                 \r\n                  `.------::::::::+d/`hmdyo:.``.hmsomd: `.:oydNh.sh+:::::::------.`                 \r\n                  `.-------:::::::od: smddddhs++mdosddo+oyhddmms.oho:::::::------.`                 \r\n                   `-------:::::::+do.-/syddddddmyosydddddddhs/-:yh+::::::-------``                 \r\n                   `.------::::-:::+sy+...:oyddhyssosyhddyo/-`-sys+:::::::------.`                  \r\n                   ``.-------::--::-:+hs:` `./hmssssosdh+.```/hy/:::::::-------.``                  \r\n                    `.--------:--::::-/yy/.``.+mhsosohmo.``.+ds::::::::--------.`                   \r\n                     `..-------:::::---:sy+.  -hmsossdh:``.oho:/:::::::-------.`                    \r\n                      `.--------:-::-:--:oy+``./Nhsohmo. .oh+-:::::::--------.`                     \r\n                       ``.-------------:-/sy/``-hNsomh:`.+ys:::::::--------.``                      \r\n                         `.------------::-+yy/..+Nhhmo-./yy/-:::----------.`                        \r\n                          ``.----------::-:/sysoommNmyssyo/-::-:-------...`                         \r\n                            ``..-------:--:--:/+oooso++/:--:----------.``                           \r\n                              ```.---------------------------------..``                             \r\n                                ````..-------------------------...``                                \r\n                                     ````...-----------......````                                   \r\n                                           ````````````````                                         \r\n                                                                                                    \r\n                                                                                                    \r\n              _____                   _______                   _____                    _____          \r\n             /\\    \\                 /::\\    \\                 /\\    \\                  /\\    \\         \r\n            /::\\____\\               /::::\\    \\               /::\\    \\                /::\\    \\        \r\n           /:::/    /              /::::::\\    \\              \\:::\\    \\               \\:::\\    \\       \r\n          /:::/    /              /::::::::\\    \\              \\:::\\    \\               \\:::\\    \\      \r\n         /:::/    /              /:::/~~\\:::\\    \\              \\:::\\    \\               \\:::\\    \\     \r\n        /:::/____/              /:::/    \\:::\\    \\              \\:::\\    \\               \\:::\\    \\    \r\n       /::::\\    \\             /:::/    / \\:::\\    \\             /::::\\    \\              /::::\\    \\   \r\n      /::::::\\____\\________   /:::/____/   \\:::\\____\\   _____   /::::::\\    \\    ____    /::::::\\    \\  \r\n     /:::/\\:::::::::::\\    \\ |:::|    |     |:::|    | /\\    \\ /:::/\\:::\\    \\  /\\   \\  /:::/\\:::\\    \\ \r\n    /:::/  |:::::::::::\\____\\|:::|____|     |:::|    |/::\\    /:::/  \\:::\\____\\/::\\   \\/:::/  \\:::\\____\\\r\n    \\::/   |::|~~~|~~~~~      \\:::\\    \\   /:::/    / \\:::\\  /:::/    \\::/    /\\:::\\  /:::/    \\::/    /\r\n     \\/____|::|   |            \\:::\\    \\ /:::/    /   \\:::\\/:::/    / \\/____/  \\:::\\/:::/    / \\/____/ \r\n           |::|   |             \\:::\\    /:::/    /     \\::::::/    /            \\::::::/    /          \r\n           |::|   |              \\:::\\__/:::/    /       \\::::/    /              \\::::/____/           \r\n           |::|   |               \\::::::::/    /         \\::/    /                \\:::\\    \\           \r\n           |::|   |                \\::::::/    /           \\/____/                  \\:::\\    \\          \r\n           |::|   |                 \\::::/    /                                      \\:::\\    \\         \r\n           \\::|   |                  \\::/____/                                        \\:::\\____\\        \r\n            \\:|   |                   ~~                                               \\::/    /        \r\n             \\|___|                                                                     \\/____/         \r\n                                                                                      \r\n*////////////////////////////////////////////////////////////////////////////////////////////////////////////\r\n\r\n// SPDX-License-Identifier: MIT\r\n\r\npragma solidity 0.7.4;\r\n\r\nimport \"@openzeppelin/contracts/GSN/Context.sol\";\r\nimport \"@openzeppelin/contracts/token/ERC20/IERC20.sol\";\r\nimport \"@openzeppelin/contracts/math/SafeMath.sol\";\r\nimport \"@openzeppelin/contracts/utils/Address.sol\";\r\nimport \"@openzeppelin/contracts/access/Ownable.sol\";\r\n\r\ncontract KojiToken is Context, IERC20, Ownable {\r\n    using SafeMath for uint256;\r\n    using Address for address;\r\n\r\n    string private constant NAME = \"Doji Token\";\r\n    string private constant SYMBOL = \"Doji\";\r\n    uint8 private constant DECIMALS = 18;\r\n\r\n    mapping(address => uint256) private rewards;\r\n    mapping(address => uint256) private actual;\r\n    mapping(address => mapping(address => uint256)) private allowances;\r\n\r\n    mapping(address => bool) private excludedFromFees;\r\n    mapping(address => bool) private excludedFromRewards;\r\n    address[] private rewardExcluded;\r\n\r\n    uint256 private constant MAX = ~uint256(0);\r\n    uint256 private constant ACTUAL_TOTAL = 10000000 * 10**6 * 10**18;  //10 Trillion\r\n    uint256 private rewardsTotal = (MAX - (MAX % ACTUAL_TOTAL));\r\n    uint256 private holderFeeTotal;\r\n    uint256 private charityFeeTotal;\r\n    uint256 private burnFeeTotal;\r\n    uint256 private adminFeeTotal;\r\n\r\n    //dev reward wallets\r\n    //1% charity, 0.5% admin, 1% holders and 0.5% burn\r\n    uint256 public taxPercentage = 3;     //3% Total\r\n    uint256 public holderTaxAlloc = 10;   //1%\r\n    uint256 public charityTaxAlloc = 10;  //1%\r\n    uint256 public burnTaxAlloc = 5;      //.5%\r\n    uint256 public adminTaxAlloc = 5;     //.5%\r\n    uint256 public totalTaxAlloc = charityTaxAlloc.add(holderTaxAlloc).add(burnTaxAlloc).add(adminTaxAlloc);\r\n\r\n    address public charityAddress;\r\n    address public burnAddress;\r\n    address public adminAddress;\r\n\r\n    constructor(address _charityAddress) {\r\n        rewards[_charityAddress] = rewardsTotal;\r\n        emit Transfer(address(0), _charityAddress, ACTUAL_TOTAL);\r\n\r\n        charityAddress = _charityAddress;\r\n\r\n        excludeFromRewards(_msgSender());\r\n        excludeFromFees(_charityAddress);\r\n\r\n        if (_charityAddress != _msgSender()) {\r\n            excludeFromRewards(_charityAddress);\r\n            excludeFromFees(_msgSender());\r\n        }\r\n\r\n        excludeFromFees(address(0x000000000000000000000000000000000000dEaD));\r\n    }\r\n\r\n    function name() external pure returns (string memory) {\r\n        return NAME;\r\n    }\r\n\r\n    function symbol() external pure returns (string memory) {\r\n        return SYMBOL;\r\n    }\r\n\r\n    function decimals() external pure returns (uint8) {\r\n        return DECIMALS;\r\n    }\r\n\r\n    function totalSupply() external pure override returns (uint256) {\r\n        return ACTUAL_TOTAL;\r\n    }\r\n\r\n    function balanceOf(address _account) public view override returns (uint256) {\r\n        if (excludedFromRewards[_account]) {\r\n            return actual[_account];\r\n        }\r\n        return tokenWithRewards(rewards[_account]);\r\n    }\r\n\r\n    function transfer(address _recipient, uint256 _amount) public override returns (bool) {\r\n        _transfer(_msgSender(), _recipient, _amount);\r\n        return true;\r\n    }\r\n\r\n    function allowance(address _owner, address _spender) public view override returns (uint256) {\r\n        return allowances[_owner][_spender];\r\n    }\r\n\r\n    function approve(address _spender, uint256 _amount) public override returns (bool) {\r\n        _approve(_msgSender(), _spender, _amount);\r\n        return true;\r\n    }\r\n\r\n    function transferFrom(\r\n        address _sender,\r\n        address _recipient,\r\n        uint256 _amount\r\n    ) public override returns (bool) {\r\n        _transfer(_sender, _recipient, _amount);\r\n\r\n        _approve(\r\n        _sender,\r\n            _msgSender(),\r\n            allowances[_sender][_msgSender()].sub(_amount, \"ERC20: transfer amount exceeds allowance\")\r\n        );\r\n\r\n        return true;\r\n    }\r\n\r\n    function increaseAllowance(address _spender, uint256 _addedValue) public virtual returns (bool) {\r\n        _approve(_msgSender(), _spender, allowances[_msgSender()][_spender].add(_addedValue));\r\n        return true;\r\n    }\r\n\r\n    function decreaseAllowance(address _spender, uint256 _subtractedValue) public virtual returns (bool) {\r\n        _approve(\r\n            _msgSender(),\r\n            _spender,\r\n            allowances[_msgSender()][_spender].sub(_subtractedValue, \"ERC20: decreased allowance below zero\")\r\n        );\r\n        return true;\r\n    }\r\n\r\n    function isExcludedFromRewards(address _account) external view returns (bool) {\r\n        return excludedFromRewards[_account];\r\n    }\r\n\r\n    function isExcludedFromFees(address _account) external view returns (bool) {\r\n        return excludedFromFees[_account];\r\n    }\r\n\r\n    function totalFees() external view returns (uint256) {\r\n        return holderFeeTotal.add(charityFeeTotal).add(burnFeeTotal).add(adminFeeTotal);\r\n    }\r\n\r\n    function totalHolderFees() external view returns (uint256) {\r\n        return holderFeeTotal;\r\n    }\r\n\r\n    function totalCharityFees() external view returns (uint256) {\r\n        return charityFeeTotal;\r\n    }\r\n\r\n    function totalBurnFees() external view returns (uint256) {\r\n        return burnFeeTotal;\r\n    }\r\n\r\n    function totalAdminFees() external view returns (uint256) {\r\n        return adminFeeTotal;\r\n    }\r\n\r\n    function distribute(uint256 _actualAmount) public {\r\n        address sender = _msgSender();\r\n        require(!excludedFromRewards[sender], \"Excluded addresses cannot call this function\");\r\n\r\n        (uint256 rewardAmount, , , , ) = _getValues(_actualAmount);\r\n        rewards[sender] = rewards[sender].sub(rewardAmount);\r\n        rewardsTotal = rewardsTotal.sub(rewardAmount);\r\n        holderFeeTotal = holderFeeTotal.add(_actualAmount);\r\n    }\r\n\r\n    function excludeFromFees(address _account) public onlyOwner() {\r\n        require(!excludedFromFees[_account], \"Account is already excluded from fee\");\r\n        excludedFromFees[_account] = true;\r\n    }\r\n\r\n    function includeInFees(address _account) public onlyOwner() {\r\n        require(excludedFromFees[_account], \"Account is already included in fee\");\r\n        excludedFromFees[_account] = false;\r\n    }\r\n\r\n    function excludeFromRewards(address _account) public onlyOwner() {\r\n        require(!excludedFromRewards[_account], \"Account is already excluded from reward\");\r\n\r\n        if (rewards[_account] > 0) {\r\n            actual[_account] = tokenWithRewards(rewards[_account]);\r\n        }\r\n\r\n        excludedFromRewards[_account] = true;\r\n        rewardExcluded.push(_account);\r\n    }\r\n\r\n    function includeInRewards(address _account) public onlyOwner() {\r\n        require(excludedFromRewards[_account], \"Account is already included in rewards\");\r\n\r\n        for (uint256 i = 0; i < rewardExcluded.length; i++) {\r\n            if (rewardExcluded[i] == _account) {\r\n                rewardExcluded[i] = rewardExcluded[rewardExcluded.length - 1];\r\n                actual[_account] = 0;\r\n                excludedFromRewards[_account] = false;\r\n                rewardExcluded.pop();\r\n                break;\r\n            }\r\n        }\r\n    }\r\n\r\n    function _approve(\r\n        address _owner,\r\n        address _spender,\r\n        uint256 _amount\r\n    ) private {\r\n        require(_owner != address(0), \"ERC20: approve from the zero address\");\r\n        require(_spender != address(0), \"ERC20: approve to the zero address\");\r\n\r\n        allowances[_owner][_spender] = _amount;\r\n        emit Approval(_owner, _spender, _amount);\r\n    }\r\n\r\n    function _transfer(\r\n        address _sender,\r\n        address _recipient,\r\n        uint256 _amount\r\n    ) private {\r\n        require(_sender != address(0), \"ERC20: transfer from the zero address\");\r\n        require(_recipient != address(0), \"ERC20: transfer to the zero address\");\r\n        require(_amount > 0, \"Transfer amount must be greater than zero\");\r\n\r\n        uint256 currentTaxPercentage = taxPercentage;\r\n        if (excludedFromFees[_sender] || excludedFromFees[_recipient]) {\r\n            taxPercentage = 0;\r\n        } else {\r\n            uint256 fee = _getFee(_amount);\r\n            uint256 charityFee = _getCharityFee(fee);\r\n            uint256 burnFee = _getBurnFee(fee);\r\n            uint256 adminFee = _getAdminFee(fee);\r\n\r\n            _updateCharityFee(charityFee);\r\n            _updateBurnFee(burnFee);\r\n            _updateAdminFee(adminFee);\r\n        }\r\n\r\n        if (excludedFromRewards[_sender] && !excludedFromRewards[_recipient]) {\r\n            _transferWithoutSenderRewards(_sender, _recipient, _amount);\r\n        } else if (!excludedFromRewards[_sender] && excludedFromRewards[_recipient]) {\r\n            _transferWithRecipientRewards(_sender, _recipient, _amount);\r\n        } else if (!excludedFromRewards[_sender] && !excludedFromRewards[_recipient]) {\r\n            _transferWithRewards(_sender, _recipient, _amount);\r\n        } else if (excludedFromRewards[_sender] && excludedFromRewards[_recipient]) {\r\n            _transferWithoutRewards(_sender, _recipient, _amount);\r\n        } else {\r\n            _transferWithRewards(_sender, _recipient, _amount);\r\n        }\r\n\r\n        if (currentTaxPercentage != taxPercentage) {\r\n            taxPercentage = currentTaxPercentage;\r\n        }\r\n    }\r\n\r\n    function _transferWithRewards(\r\n        address _sender,\r\n        address _recipient,\r\n        uint256 _actualAmount\r\n    ) private {\r\n        (\r\n            uint256 rewardAmount,\r\n            uint256 rewardTransferAmount,\r\n            uint256 rewardFee,\r\n            uint256 actualTransferAmount,\r\n            uint256 actualFee\r\n        ) = _getValues(_actualAmount);\r\n\r\n        rewards[_sender] = rewards[_sender].sub(rewardAmount);\r\n        rewards[_recipient] = rewards[_recipient].add(rewardTransferAmount);\r\n        _updateHolderFee(rewardFee, actualFee);\r\n        emit Transfer(_sender, _recipient, actualTransferAmount);\r\n    }\r\n\r\n    function _transferWithRecipientRewards(\r\n        address _sender,\r\n        address _recipient,\r\n        uint256 _actualAmount\r\n    ) private {\r\n        (\r\n            uint256 rewardAmount,\r\n            uint256 rewardTransferAmount,\r\n            uint256 rewardFee,\r\n            uint256 actualTransferAmount,\r\n            uint256 actualFee\r\n        ) = _getValues(_actualAmount);\r\n\r\n        rewards[_sender] = rewards[_sender].sub(rewardAmount);\r\n        actual[_recipient] = actual[_recipient].add(actualTransferAmount);\r\n        rewards[_recipient] = rewards[_recipient].add(rewardTransferAmount);\r\n        _updateHolderFee(rewardFee, actualFee);\r\n        emit Transfer(_sender, _recipient, actualTransferAmount);\r\n    }\r\n\r\n    function _transferWithoutSenderRewards(\r\n        address _sender,\r\n        address _recipient,\r\n        uint256 _actualAmount\r\n    ) private {\r\n        (\r\n            uint256 rewardAmount,\r\n            uint256 rewardTransferAmount,\r\n            uint256 rewardFee,\r\n            uint256 actualTransferAmount,\r\n            uint256 actualFee\r\n        ) = _getValues(_actualAmount);\r\n\r\n        actual[_sender] = actual[_sender].sub(_actualAmount);\r\n        rewards[_sender] = rewards[_sender].sub(rewardAmount);\r\n        rewards[_recipient] = rewards[_recipient].add(rewardTransferAmount);\r\n        _updateHolderFee(rewardFee, actualFee);\r\n        emit Transfer(_sender, _recipient, actualTransferAmount);\r\n    }\r\n\r\n    function _transferWithoutRewards(\r\n        address _sender,\r\n        address _recipient,\r\n        uint256 _actualAmount\r\n    ) private {\r\n        (\r\n            uint256 rewardAmount,\r\n            uint256 rewardTransferAmount,\r\n            uint256 rewardFee,\r\n            uint256 actualTransferAmount,\r\n            uint256 actualFee\r\n        ) = _getValues(_actualAmount);\r\n\r\n        actual[_sender] = actual[_sender].sub(_actualAmount);\r\n        rewards[_sender] = rewards[_sender].sub(rewardAmount);\r\n        actual[_recipient] = actual[_recipient].add(actualTransferAmount);\r\n        rewards[_recipient] = rewards[_recipient].add(rewardTransferAmount);\r\n        _updateHolderFee(rewardFee, actualFee);\r\n        emit Transfer(_sender, _recipient, actualTransferAmount);\r\n    }\r\n\r\n    function _updateHolderFee(uint256 _rewardFee, uint256 _actualFee) private {\r\n        rewardsTotal = rewardsTotal.sub(_rewardFee);\r\n        holderFeeTotal = holderFeeTotal.add(_actualFee);\r\n    }\r\n\r\n    function _updateCharityFee(uint256 _charityFee) private {\r\n        if (charityAddress == address(0)) {\r\n            return;\r\n        }\r\n\r\n        uint256 rewardsRate = _getRewardsRate();\r\n        uint256 rewardCharityFee = _charityFee.mul(rewardsRate);\r\n        charityFeeTotal = charityFeeTotal.add(_charityFee);\r\n\r\n        rewards[charityAddress] = rewards[charityAddress].add(rewardCharityFee);\r\n        if (excludedFromRewards[charityAddress]) {\r\n            actual[charityAddress] = actual[charityAddress].add(_charityFee);\r\n        }\r\n    }\r\n\r\n    function _updateBurnFee(uint256 _burnFee) private {\r\n        if (burnAddress == address(0)) {\r\n            return;\r\n        }\r\n\r\n        uint256 rewardsRate = _getRewardsRate();\r\n        uint256 rewardBurnFee = _burnFee.mul(rewardsRate);\r\n        burnFeeTotal = burnFeeTotal.add(_burnFee);\r\n\r\n        rewards[burnAddress] = rewards[burnAddress].add(rewardBurnFee);\r\n        if (excludedFromRewards[burnAddress]) {\r\n            actual[burnAddress] = actual[burnAddress].add(_burnFee);\r\n        }\r\n    }\r\n\r\n    function _updateAdminFee(uint256 _adminFee) private {\r\n        if (adminAddress == address(0)) {\r\n            return;\r\n        }\r\n\r\n        uint256 rewardsRate = _getRewardsRate();\r\n        uint256 rewardAdminFee = _adminFee.mul(rewardsRate);\r\n        adminFeeTotal = adminFeeTotal.add(_adminFee);\r\n\r\n        rewards[adminAddress] = rewards[adminAddress].add(rewardAdminFee);\r\n        if (excludedFromRewards[adminAddress]) {\r\n            actual[adminAddress] = actual[adminAddress].add(_adminFee);\r\n        }\r\n    }\r\n\r\n    function rewardsFromToken(uint256 _actualAmount, bool _deductTransferFee) public view returns (uint256) {\r\n        require(_actualAmount <= ACTUAL_TOTAL, \"Amount must be less than supply\");\r\n        if (!_deductTransferFee) {\r\n            (uint256 rewardAmount, , , , ) = _getValues(_actualAmount);\r\n            return rewardAmount;\r\n        } else {\r\n            (, uint256 rewardTransferAmount, , , ) = _getValues(_actualAmount);\r\n            return rewardTransferAmount;\r\n        }\r\n    }\r\n\r\n    function tokenWithRewards(uint256 _rewardAmount) public view returns (uint256) {\r\n        require(_rewardAmount <= rewardsTotal, \"Amount must be less than total rewards\");\r\n        uint256 rewardsRate = _getRewardsRate();\r\n        return _rewardAmount.div(rewardsRate);\r\n    }\r\n\r\n    function _getValues(uint256 _actualAmount)\r\n        private\r\n        view\r\n        returns (\r\n            uint256,\r\n            uint256,\r\n            uint256,\r\n            uint256,\r\n            uint256\r\n        )\r\n    {\r\n        (uint256 actualTransferAmount, uint256 actualFee) = _getActualValues(_actualAmount);\r\n        uint256 rewardsRate = _getRewardsRate();\r\n        (\r\n            uint256 rewardAmount,\r\n            uint256 rewardTransferAmount,\r\n            uint256 rewardFee\r\n        ) = _getRewardValues(_actualAmount, actualFee, rewardsRate);\r\n\r\n        return (rewardAmount, rewardTransferAmount, rewardFee, actualTransferAmount, actualFee);\r\n    }\r\n\r\n    function _getActualValues(uint256 _actualAmount) private view returns (uint256, uint256) {\r\n        uint256 actualFee = _getFee(_actualAmount);\r\n        uint256 actualHolderFee = _getHolderFee(actualFee);\r\n        uint256 actualTransferAmount = _actualAmount.sub(actualFee);\r\n        return (actualTransferAmount, actualHolderFee);\r\n    }\r\n\r\n    function _getRewardValues(\r\n        uint256 _actualAmount,\r\n        uint256 _actualHolderFee,\r\n        uint256 _rewardsRate\r\n    )\r\n        private\r\n        view\r\n        returns (\r\n            uint256,\r\n            uint256,\r\n            uint256\r\n        )\r\n    {\r\n        uint256 actualFee = _getFee(_actualAmount).mul(_rewardsRate);\r\n        uint256 rewardAmount = _actualAmount.mul(_rewardsRate);\r\n        uint256 rewardTransferAmount = rewardAmount.sub(actualFee);\r\n        uint256 rewardFee = _actualHolderFee.mul(_rewardsRate);\r\n        return (rewardAmount, rewardTransferAmount, rewardFee);\r\n    }\r\n\r\n    function _getRewardsRate() private view returns (uint256) {\r\n        (uint256 rewardsSupply, uint256 actualSupply) = _getCurrentSupply();\r\n        return rewardsSupply.div(actualSupply);\r\n    }\r\n\r\n    function _getCurrentSupply() private view returns (uint256, uint256) {\r\n        uint256 rewardsSupply = rewardsTotal;\r\n        uint256 actualSupply = ACTUAL_TOTAL;\r\n\r\n        for (uint256 i = 0; i < rewardExcluded.length; i++) {\r\n            if (rewards[rewardExcluded[i]] > rewardsSupply || actual[rewardExcluded[i]] > actualSupply) {\r\n                return (rewardsTotal, ACTUAL_TOTAL);\r\n            }\r\n\r\n            rewardsSupply = rewardsSupply.sub(rewards[rewardExcluded[i]]);\r\n            actualSupply = actualSupply.sub(actual[rewardExcluded[i]]);\r\n        }\r\n\r\n        if (rewardsSupply < rewardsTotal.div(ACTUAL_TOTAL)) {\r\n            return (rewardsTotal, ACTUAL_TOTAL);\r\n        }\r\n\r\n        return (rewardsSupply, actualSupply);\r\n    }\r\n\r\n    function _getFee(uint256 _amount) private view returns (uint256) {\r\n        return _amount.mul(taxPercentage).div(100);\r\n    }\r\n\r\n    function _getHolderFee(uint256 _tax) private view returns (uint256) {\r\n        return _tax.mul(holderTaxAlloc).div(totalTaxAlloc);\r\n    }\r\n\r\n    function _getCharityFee(uint256 _tax) private view returns (uint256) {\r\n        return _tax.mul(charityTaxAlloc).div(totalTaxAlloc);\r\n    }\r\n\r\n    function _getBurnFee(uint256 _tax) private view returns (uint256) {\r\n        return _tax.mul(burnTaxAlloc).div(totalTaxAlloc);\r\n    }\r\n\r\n    function _getAdminFee(uint256 _tax) private view returns (uint256) {\r\n        return _tax.mul(adminTaxAlloc).div(totalTaxAlloc);\r\n    }\r\n\r\n    function setTaxPercentage(uint256 _taxPercentage) external onlyOwner {\r\n        require(_taxPercentage >= 1 && _taxPercentage <= 10, \"Value is outside of range 1-10\");\r\n        taxPercentage = _taxPercentage;\r\n    }\r\n\r\n    function setTaxAllocations(\r\n        uint256 _holderTaxAlloc,\r\n        uint256 _charityTaxAlloc,\r\n        uint256 _burnTaxAlloc,\r\n        uint256 _adminTaxAlloc\r\n    ) external onlyOwner {\r\n        totalTaxAlloc = _holderTaxAlloc.add(_charityTaxAlloc).add(_burnTaxAlloc).add(_adminTaxAlloc);\r\n\r\n        require(_holderTaxAlloc >= 5 && _holderTaxAlloc <= 10, \"_holderTaxAlloc is outside of range 5-10\");\r\n        require(_burnTaxAlloc >= 5 && _burnTaxAlloc <= 10, \"_burnTaxAlloc is outside of range 5-10\");\r\n        require(_charityTaxAlloc <= 10, \"_charityTaxAlloc is greater than 10\");\r\n        require(_adminTaxAlloc <= 10, \"_adminTaxAlloc is greater than 10\");\r\n\r\n        holderTaxAlloc = _holderTaxAlloc;\r\n        charityTaxAlloc = _charityTaxAlloc;\r\n        burnTaxAlloc = _burnTaxAlloc;\r\n        adminTaxAlloc = _adminTaxAlloc;\r\n    }\r\n\r\n    function setCharityAddress(address _charityAddress) external onlyOwner {\r\n        charityAddress = _charityAddress;\r\n    }\r\n\r\n    function setBurnAddress(address _burnAddress) external onlyOwner {\r\n        burnAddress = _burnAddress;\r\n    }\r\n\r\n    function setAdminAddress(address _adminAddress) external onlyOwner {\r\n        adminAddress = _adminAddress;\r\n    }\r\n\r\n}\r\n",
  "sourcePath": "F:/TRUFFLE WORKING/contracts/Kojitoken.sol",
  "compiler": {
    "name": "solc",
    "version": "0.7.4+commit.3f05b770.Emscripten.clang"
  },
  "schemaVersion": "3.3.3",
  "updatedAt": "2021-03-24T05:02:59.449Z",
  "networkType": "ethereum",
  "devdoc": {
    "kind": "dev",
    "methods": {
      "owner()": {
        "details": "Returns the address of the current owner."
      },
      "renounceOwnership()": {
        "details": "Leaves the contract without owner. It will not be possible to call `onlyOwner` functions anymore. Can only be called by the current owner. NOTE: Renouncing ownership will leave the contract without an owner, thereby removing any functionality that is only available to the owner."
      },
      "totalSupply()": {
        "details": "Returns the amount of tokens in existence."
      },
      "transferOwnership(address)": {
        "details": "Transfers ownership of the contract to a new account (`newOwner`). Can only be called by the current owner."
      }
    },
    "version": 1
  },
  "userdoc": {
    "kind": "user",
    "methods": {},
    "version": 1
  }
}